:020000040800F2
:10000000D8230020E5020008F5450008C941000892
:10001000F14500089D1500089188000800000000C7
:10002000000000000000000000000000014A00087D
:10003000D116000800000000FD490008914A0008A0
:10004000FF020008FF020008FF020008FF0200088C
:10005000FF020008FF020008FF020008FF0200087C
:10006000FF020008FF020008FF020008FF0200086C
:10007000FF020008FF020008FF020008FF0200085C
:10008000FF020008FF020008FF0200080000000055
:10009000000000000000000000000000FF02000857
:1000A000FF020008FF020008FF020008FF0200082C
:1000B000654B0008FF020008FF020008FF0200086D
:1000C000FF020008FF020008FF020008FF0200080C
:1000D000FF020008FF020008FF0200080000000005
:1000E000FF020008FF020008FF02000800000000F5
:1000F000000000000000000000000000FF020008F7
:1001000000000000FF020008FF020008FF020008D4
:1001100000000000000000000000000000000000DF
:10012000FF020008FF020008FF020008FF020008AB
:10013000FF020008000000000000000000000000B6
:1001400000000000000000000000000065460008FC
:10015000FF020008FF020008FF020008FF0200087B
:10016000FF020008FF02000800000000000000007D
:10017000000000000000000000000000000000007F
:1001800000000000FF020008000000000000000066
:10019000FF020008FF02000800F002F800F092F8E9
:1001A0000AA090E8000C82448344AAF10107DA45D2
:1001B00001D100F087F8AFF2090EBAE80F0013F092
:1001C000010F18BFFB1A43F001031847C491000048
:1001D000E4910000103A24BF78C878C1FAD85207D9
:1001E00024BF30C830C144BF04680C6070470000B1
:1001F0000023002400250026103A28BF78C1FBD830
:10020000520728BF30C148BF0B6070476E2900F00D
:10021000FF81702900F04183662909F0008065297B
:1002200008F0FD87672908F0FA87612908F0F98747
:1002300003681B0A28BF41F08001692900F0AC81E6
:10024000642900F0A981752900F0A6816F2900F0CA
:10025000CF82782900F00D83E92900F06982E42932
:1002600000F06682F52900F06382EF2900F0CC826D
:10027000F82900F00C830368DB0928BF41F08001F6
:10028000632901F00D80732901F01280E32901F048
:100290001D80F32901F02280002070471FB508F06F
:1002A000B1FF01F071F804000020002108F094FF74
:1002B000401C60600020002108F078FFE0601FBD56
:1002C00010B510BD01F032F81146FFF7E7FF08F056
:1002D00041FB01F00FF903B4FFF7F2FF03BC01F09B
:1002E00055F900000948804709480047FEE7FEE746
:1002F000FEE7FEE7FEE7FEE7FEE7FEE7FEE7FEE7D6
:1003000004480549054A064B70470000514B000858
:1003100099010008D81D0020D8230020D81F0020F4
:10032000D81F002053EA020C00F069802DE9F04B41
:100330004FF00006002B1FBFB3FA83F503FA05F454
:1003400024FA05F65E4012BF1643B2FA82F502FAAD
:1003500005F4C5F120051EBF22FA05FC44EA0C0491
:10036000203556EA044C4FEA144418BF641C4FF081
:1003700000084FF00009904271EB030C39D30029BB
:1003800019BFB1FA81F701FA07F6B0FA80F700FA5F
:1003900007F6C7F120071EBF20FA07FC46EA0C0645
:1003A0002037B6FBF4FCA7EB0507103F07F01F0B47
:1003B000CBF120062CFA06F60CFA0BFB44BFB34631
:1003C0000026202FA4BF5E464FF0000B5BEA060C10
:1003D00008BF4FF0010B19EB0B0948EB0608ABFB0C
:1003E000027C06FB02CC0BFB03CCC01B71EB0C01A7
:1003F000C1E70B46024641464846BDE8F08B13B5BF
:10040000084318BF4FF0FF300146AFF30080BDE84E
:100410001C4070470FB41CB5084B06AA7B446946C4
:100420000090059800F00DF904460020694600F0A0
:100430001BF920461CBC5DF814FB000049020000BB
:1004400010B5431C02E010F8011B71B18107FAD10D
:100450004FF0013202C88C1A8C4314EAC211F9D051
:10046000C01A0A0603D0C01E10BDC01A10BD0A046F
:1004700001D0801E10BD0902FCD0401E10BD4FF0FF
:10048000000200B5134694469646203922BFA0E8E4
:100490000C50A0E80C50B1F12001BFF4F7AF0907F0
:1004A00028BFA0E80C5048BF0CC05DF804EB8900E1
:1004B00028BF40F8042B08BF704748BF20F8022B24
:1004C00011F0804F18BF00F8012B7047704770473C
:1004D000704770B5044685690068C10601D53026AD
:1004E00000E02026C00707D070BDD4E901213046C6
:1004F0009047206A401C20626D1EF6D570BD70B515
:10050000044685690078C00707D170BDD4E9012190
:1005100020209047206A401C20626D1EF6D570BDD9
:1005200009684A0501D540B27047C905FCD500B23B
:10053000704709684A0501D5C0B27047C905FCD5A6
:1005400080B2704770B50C460546012A05D0287860
:10055000800600D5EA69002302E0012305E05B1C68
:10056000934202D2E05C0028F9D1A869E618C01ACB
:10057000A861286A184428622846FFF7AAFF04E009
:10058000D5E9012114F8010B9047B442F8D328466D
:10059000FFF7B5FF70BD00002DE9F04106460024CD
:1005A00010687529314616A510D0FFF7B9FF00284D
:1005B00002DA404213A507E031688A0701D512A587
:1005C00002E0490704D511A5012401E0FFF7B1FFBE
:1005D00000210A2206F1240709E0B0FBF2FCB0FB7F
:1005E000F2F302FB1C00303078541846491C0028F6
:1005F000F3D123462A463046BDE8F04100F061BA07
:10060000000000002D0000002B0000002000000072
:1006100011680268006A530501D508700AE0D30525
:1006200001D5088006E0130603D5C217C1E9000210
:1006300000E008600120704701694A1C02610878E7
:10064000704700B58FB0CDE9013100210591054912
:100650007944CDE903101146684600F029F90FB03E
:1006600000BD0000E5FFFFFF0A6802F8010B0A6009
:10067000704700002DE9FF5F15468A460446DFF803
:10068000AC80F8440027D8E900103E46CDE90010C0
:1006900010E03AF816106A4602A800F023FE411C4A
:1006A00007D02178890603D5E269391891420DD81F
:1006B0000744761C2078800602D5E069B84205DD43
:1006C000AE42E6DB3AF816000028E2D1A069C01B72
:1006D000A0612046FFF7FDFED8E90010CDE900102B
:1006E000002017E03AF818106A4602A800F0FAFD58
:1006F000B0F1FF3F81460BD000250DF1080B05E05E
:10070000D4E901211BF8050090476D1C4D45F7D336
:1007100008F10100B0428046E4DB206A38442062E0
:100720002046FFF7ECFEBDE8FF9F0000A28B000013
:100730002DE9F0418046D21D22F007020025D2E9C2
:100740000002F52915A614D0011E72F1000106DA87
:100750000023D0EB030063EB020211A608E0D8F8F7
:1007600000108B0701D50FA602E0490701D50EA6A0
:1007700001251146002408F1240704E000F05CF98B
:1007800030323A55641C50EA0102F7D12B4632460A
:1007900021464046BDE8F04100F093B9000000005A
:1007A0002D0000002B0000002000000030B40021CC
:1007B00000F1240408E002F00705D208303542EACF
:1007C0004372DB086554491C52EA0305F3D10468FF
:1007D000002310A2250708D504F020040C4304D000
:1007E000C46901230CA2641EC46130BC00F069B965
:1007F00010B5044621461068FFF79BFE02462046CE
:10080000BDE810400023D1E7D21D22F00701D1E955
:100810000023CBE70000000030000000F0B40D46DC
:100820000188090502D5214C7C4402E01F4C7C4420
:100830000E34002100F1240608E002F00F0712092F
:10084000E75D42EA03721B097754491C52EA030729
:10085000F3D102780023120704D5702D06D009B118
:10086000022311342246F0BC00F02BB901231034CE
:10087000F8E770B504460D4621461068FFF759FEAB
:10088000024629462046BDE870400023C6E7D21D37
:1008900022F00703D3E90023C0E70368126843F09E
:1008A000200303600823C3610023B7E7048A000024
:1008B0002DE9F05F894604464FF0000ADFF874B175
:1008C000FB44C0F820A02046E1688847002874D087
:1008D000252806D0D4E901219047206A401C2062D7
:1008E000F1E700265F462046E16888472028054654
:1008F00007DB312D05D2781910F8200C08B106431A
:10090000F1E7B00701D526F00406C4F81CA00027C3
:10091000C4F818A02A2D09D0284608F03FFC38B3A7
:1009200004EB8708303DC8F8185019E059F8041B4B
:10093000204604EB87029161E1688847012F054654
:1009400018D1E069002820DA26F020061DE0D8F84A
:10095000180000EB800005EB40003038C8F81800A4
:100960002046E1688847054608F018FC0028EED1CB
:10097000012F0AD02E2D08D12046E16888477F1C20
:100980000546022F46F02006C4DBA069002803DAE2
:10099000404246F00106A061F00701D026F01006A3
:1009A0006C2D0BD0682D09D04C2D39D06A2D35D047
:1009B000742D35D07A2D33D016E038E0E1682F461B
:1009C00020468847B842054609D16C2F26D04FF4FF
:1009D0008060E168064320468847054604E06C2FA6
:1009E0001AD04FF4807006430DB3A5F141001928C9
:1009F00002D8203546F400664A462946204626603D
:100A00004E46FFF703FC80B101280BD0F61D26F0FF
:100A1000070000F1080956E74020E4E78020D8E706
:100A20000020D6E706F104094DE7284652E7206A80
:100A3000BDE8F09F9489000030B5B0F10A0271F171
:100A400000034FEA900E4EEA817EB0EB0E0061EBA0
:100A500091014FEA101E4EEA017E10EB0E0041EBB1
:100A600011114FEA102E4EEA016E10EB0E0041EB11
:100A700011214FEA104E4EEA014E10EB0E0041EBF1
:100A80001141401841F100014FEAD00040EA4170A5
:100A90004FEAD1014FEA810444EA907410EB8005DB
:100AA00044EB01046D1944EB0404521BA3414FF0C5
:100AB000000348BF0A3200D530BD401C41F100019F
:100AC00030BD2DE9F0470D4699469246044600F1A7
:100AD00024080168880604D5E06921F0100121602E
:100AE00000E00120A84201DD471B00E00027A169CA
:100AF0007A1902EB0900081AA0612078C00602D416
:100B00002046FFF7E6FC002608E0D4E901211AF8A8
:100B100006009047206A401C761C20624E45F4DB9C
:100B20002078C0060AD52046FFF7D3FC06E0D4E9BA
:100B3000012130209047206A401C2062381EA7F116
:100B40000107F4DC07E0D4E9012118F8050090471B
:100B5000206A401C2062281EA5F10105F3DC204616
:100B6000FFF7CDFC2078000602D50220BDE8F08713
:100B70000120FBE72DE9FF4F0C461E464FF0FF37E3
:100B80008BB0D2E90001DDF860800A908A46C1F39B
:100B90000A5505B93D46002108464FF00000BAF15C
:100BA000000F00F4400005DA00EB80004FF4400134
:100BB00001EA50004FEA9059B9F1010F00DDB94642
:100BC0000A9850EA4A000ED044F61050A5F2FF35BC
:100BD00045432F14B8F1000F1ED07542291E1EDDAB
:100BE000C9F100021CE0B8F1010F4FF0000001D084
:100BF000302103E0F24305E02154401CB042FBDB0E
:100C000030460022002121540B99C1F80880C1E927
:100C100000200FB0BDE8F08FBD1B6D1CDEE74A461B
:100C200000DA694206A800F0F3FB06AB93E8070080
:100C300003AB83E8070050460A9907F0CEFE8DE823
:100C40000700A0F500501F3800900398002D0ADD22
:100C500042F21F014A460844002303A90390684654
:100C600008F038F909E0A0F500504A461F38002383
:100C700003A90390684608F042F98DE807000004D4
:100C8000000C03D04FF0FF30410800E01046B8F1EF
:100C9000000F03D00022009215461EE0751E05D4F9
:100CA000FFF7CAFE303262556D1EF9D5B3460122F8
:100CB000084302D000227F1C04E02078302801D1B4
:100CC00000227F1E002A099784D01DE0112D07DA2B
:100CD000FFF7B2FE303262556D1C50EA0102F5D1C9
:100CE000084302D00098C8B10EE00021681E05E05C
:100CF000235C625C63542254401E491C8142F7DB32
:100D0000AB46A81B401E0990002004F80B000B986E
:100D1000099AC0F80880C0E9002B7AE711264FF045
:100D2000000857E72DE9F04F88460446D21D22F00F
:100D3000070191B0D1E90001CDE90A0108F016FAE6
:100D400002460B98C00F01D02D2007E020688107D4
:100D500001D52B2002E0202101EAC000032A0990DE
:100D600001D0072A05DB03464146204600F010FB70
:100D70000BE12078800601D5E06900E00620B8F19B
:100D8000650F814606D0B8F1660F18D0B8F1670F2D
:100D900070D131E00020B9F1110F009001DB112377
:100DA00001E009F101030AAA01A90CA8FFF7E2FE7C
:100DB000DDE90C70002609F10105834647E00120BA
:100DC0004B4600904FF000470AAA01A90CA8FFF774
:100DD000D1FEDDE90DB00C995D46002610B909F190
:100DE00001000D18B9EB050003D4C0F1FF3609F17D
:100DF0000105A5EB09002BE0B9F1010F01DA4FF075
:100E000001090020B9F1110F0090484601DD1123BE
:100E100000E003460AAA01A90CA8FFF7ABFEDDE932
:100E20000C704D4600268346207800070AD4AB4557
:100E300000DA5D4601A8012D04DD411911F8011CFD
:100E4000302907D04F4502DA17F1040F04DA0120E8
:100E500082460FE06D1EEEE7002F02DCED1B3E44E4
:100E600003E0781CA84200DD7D1CB81B00F1010ADC
:100E70004FF000472078000703D4AA4501DB4FF06C
:100E8000FF3A0021B7F1004F0DF143088DF84310F0
:100E900024D002202B23002F01DA7F422D230A21A8
:100EA000021EA0F1010000DC5FB197FBF1FC97FB93
:100EB000F1F201FB1C7C17460CF1300C08F801CD57
:100EC000EEE7A8F1010003702188090501D545214D
:100ED00000E06521A0F1010800F8011C09980FA9A4
:100EE000A1EB0807FF1D00B10120411901EBEA70D9
:100EF000A1693844081A401EA0612078C00602D4B7
:100F00002046FFF7E6FA099828B1D4E90121904775
:100F1000206A401C20622078C00622D52046FFF7B8
:100F2000D8FA1EE0002E04DBB34502DD01A8805D87
:100F300000E03020D4E901219047206A401C206263
:100F4000761CAAF101005FEA000A0AD100F01CFA3F
:100F5000C0680168405CD4E901219047206A401CC8
:100F60002062281EA5F10105DCDC07E0D4E901219F
:100F700018F8010B9047206A401C2062381EA7F128
:100F80000107F3DC2046FFF7BAFA032011B041E66F
:100F90002DE9F04F04460D46D21D22F0070089B01E
:100FA000D0E900974846394608F0E0F80246F80FC5
:100FB00001D02D2307E02068810701D52B2302E013
:100FC000202101EAC0038DF820300BB1012000E0A0
:100FD0000020032A824601D0072A04DB2946204646
:100FE00000F0D6F93FE12078800601D40D2500E01D
:100FF000E569C7F30A560D2D49DA00214FEA175B60
:1010000008464FF00000002F00F4400007DA00EB24
:1010100080004FF4400100EBD07001EA60008115C0
:10102000012901DD4FF0FF3100224FEA850CBCF1B0
:10103000180F06D31346ACF118004FF08052C2408F
:1010400003E04FF4801323FA0CF30CF10C0CBCF109
:10105000200F04D3ACF1200C09FA0CF001E007FAE0
:101060000CF000294FF0004801DD18B90FE00ED157
:1010700040450CD319EB02095F4121B9404502D12B
:101080009F4329EA0209BBEB175F00D0761C20883A
:10109000000502D57B48784402E07A487844193844
:1010A00008AA302302F80A30037C0AF10101002E5D
:1010B0000AF1020A53546A4602DC4FF0300101E0A3
:1010C0004FF031014FF001088DF8001002D0A6F268
:1010D000FF3603E059EA470100D06B4E002D02DCD9
:1010E0002178090704D54FF002082E218DF8011050
:1010F000C44600210BE0C7F303433F01C35C491C16
:101100006D1E02F80830052908F1010801DA002DEA
:10111000F1DC00210CE000EB1973491C1B786D1EFB
:10112000082902F808304FEA091908F1010801DA24
:10113000002DF0DC21688B0602D516E0A8F101082D
:10114000E04505DD02EB080313F8013C302BF5D038
:10115000B8F1000F09DD02EB080313F8013C2E2B58
:1011600003D1090701D4A8F10108002D05DD3E21B6
:1011700002F808106D1E08F10108407C002E02F8EC
:10118000080008F1010804DA2D20764202F8080070
:1011900002E02B2002F808000A214FF47A70864200
:1011A00008F101080BDB96FBF0F3303302F808304E
:1011B00096FBF0F308F1010800FB136601E0642ED2
:1011C0000CDB642096FBF0F3303302F8083096FB1A
:1011D000F0F308F1010800FB136601E00A2E06DBBC
:1011E00096FBF1F0303002F8080008F1010896FB98
:1011F000F1F001FB1060303002F80800A16908F13D
:10120000010808EB050202EB0A00081AA061207829
:10121000C00602D42046FFF75CF9216A08AE01EB54
:101220000A00206204E0D4E9012116F8010B90477E
:10123000BAF1010AF7D22078C00602D52046FFF79E
:1012400048F96E4609E016F8010B3E280FD0D4E9A4
:1012500001219047206A401C2062B8F10108F2D2B7
:101260002046FFF74CF909B00320BDE8F08F206A53
:101270002844206203E0D4E90121302090476D1E0C
:10128000EBD3F8E7E281000002FCFFFF10B54369F1
:1012900013B1AFF3008001E0FFF754F9012010BD56
:1012A000127800F124010A7000224A700122EDE751
:1012B00011684FF0FF32E9E710B5436913B1AFF39E
:1012C000008001E0FFF7D6F9012010BD128800F17F
:1012D000240182840022C2840122EDE711684FF0CC
:1012E000FF32E9E72DE9F04116460C46054600F0CD
:1012F00043F8036893F80101012807D0FF2C12D8A6
:10130000185D80B101202C70BDE8F081D3F8070191
:101310003246214603F20713C7182846BC46BDE8EB
:10132000F041002360474FF0FF30EDE7754600F0D5
:10133000EBF8AE4605006946534620F007008546A7
:1013400018B020B5FEF7DCFFBDE820404FF00006E6
:101350004FF000074FF000084FF0000BAC46ACE830
:10136000C009ACE8C009ACE8C009ACE8C00921F08C
:1013700007018D467047000010B500F005F8001D0C
:1013800010BD00BF557E00000048704718010020C6
:101390002DE9F0411F46044603260168072A01F49F
:1013A000006004DB08B116A505E016A503E008B14E
:1013B00015A500E015A521F010002060A069C01E51
:1013C000A0610FB1401EA0612046FFF782F84FB127
:1013D000D4E9012138469047206A401C2062C01C95
:1013E000206206E0206AFAE7D4E9012115F8010B32
:1013F0009047761EF8D22046FFF781F8BDE8F081CD
:101400004E414E006E616E00494E4600696E6600A8
:101410002DE9F047814616468AB0354878440DC814
:101420008DE80D0032487844801C03AC0DC884E878
:101430000D0041F69B300844372190FBF1F290FB00
:10144000F1F5A5F1800501FB12041B3C02D56442B5
:10145000012000E00020DFF898A080460027FA4431
:10146000AAF1BE0A0EE0E0070AD03246684607EB52
:10147000470101230AEB810107F041FD8DE80700D8
:1014800064107F1C002CEED1194F7F44AE3F19E051
:10149000E80715D007EB04100DF1180A90E80E00CC
:1014A0008AE80E00C068F04201D1981908903246CF
:1014B000012306A903A807F022FD03AB83E8070078
:1014C0006D10641C002DE3D14FF0010332466946D4
:1014D000B8F1000F03A802D007F0FCFC01E007F010
:1014E0000EFDC9E90001C9F808200AB0BDE8F0877F
:1014F000EC7E000010B50446AFF300802046BDE846
:101500001040FEF7E8BE000000487047F8000020D9
:1015100030B44FF0013C50F8042B51F8043BCCFAA6
:1015200052F4D51A20D1FCB950F8042B51F8043BE1
:10153000CCFA52F4D51A17D1B4B950F8042B51F89B
:10154000043BCCFA52F4D51A0ED16CB950F8042BE6
:1015500051F8043BCCFA52F4D51A05D1002CDAD05C
:1015600030BC4FF00000704729BAB1FA81F111F098
:101570001801D1F120008440F2D1CA40CB4012F0D2
:10158000FF0213F0FF0330BCD01A70470149182046
:10159000ABBEFEE72600020070470000FFE7FEE753
:1015A00084B08DF80F000291ADF806209DF80F0071
:1015B0000146009123281DD80099DFE801F012139D
:1015C0001415161B1B1B1B1B1B1B1B1B1B1B1B1B7D
:1015D0001B1B1B1B1B1B1B1B1B1B1B1B1B1B171862
:1015E000191A08E007E006E005E004E003E002E085
:1015F00001E000E0FFE7002004B0704700207047E2
:1016000080B582B041F29C50C2F20000009040F6DA
:101610007C51C2F200010022019203F065FF0098A4
:1016200040F27C51C2F2000103F040FF019802B089
:1016300080BD000080B584B003900291039941F20F
:101640009C50C2F20000019003F030FF019803F0BB
:10165000D3FE002004B080BD83B0029001918DF8CC
:10166000032000208DF802009DF9020003B07047AE
:1016700080B586B00490ADF80E1000208DF80D00F6
:1016800041F29C50C2F20000D0F8BC0202900298D5
:10169000D0F8140220B1FFE701208DF8170013E005
:1016A0000499BDF80E2041F29C50C2F20000019056
:1016B00003F01AFF019804F021F88DF80D009DF851
:1016C0000D008DF81700FFE79DF8170006B080BDEC
:1016D0007047000081B0EFF3108072B60090FFE712
:1016E000FEE7000080B584B047F61020C1F6FF7019
:1016F0000068039047F61420C1F6FF70006802905E
:1017000047F61820C1F6FF70006801900199039810
:1017100008440390039888B1FFE7039840F2D8018A
:10172000C2F2000100910231082202F04FFD00993F
:1017300002981231042202F049FDFFE704B080BD97
:1017400080B584B0039000F0FFF9029003980190F7
:101750000198013048B1FFE740F2F200C2F2000008
:101760000178019808440190FFE7FFE700F0ECF9E9
:101770000299401A0199884201D2FFE7F6E704B0C6
:1017800080BD00008BB00A90099100200790069060
:1017900005900890FFE708980F2800F2A281FFE764
:1017A0000899012088400790099800680799084027
:1017B000069006980799884240F08E81FFE70998C5
:1017C000406800F00300012807D0FFE7099840684F
:1017D00000F0030002282FD1FFE70A9880680590E7
:1017E00008984100032000FA01F10598884305900C
:1017F0000998C0680899490000FA01F10598084362
:10180000059005980A9988600A984068059008999B
:10181000012000FA01F10598884305900998406875
:10182000C0F30010089900FA01F1059808430590EB
:1018300005980A994860FFE70998406800F003009E
:10184000032818D0FFE70A98C0680590089841005F
:10185000032000FA01F105988843059009988068F3
:101860000899490000FA01F1059808430590059888
:101870000A99C860FFE70998406800F00300022851
:1018800026D1FFE70A9808996FF0030202EA510196
:101890000844006A0590089800F0070081000F20B6
:1018A00000FA01F1059888430590099800690899A4
:1018B00001F00701890000FA01F10598084305903D
:1018C00005980A99089B02EA530211440862FFE74F
:1018D0000A980068059008984100032000FA01F179
:1018E0000598884305900998406800F0030008991E
:1018F000490000FA01F105980843059005980A99F6
:101900000860099880798007002800F0E480FFE7EC
:10191000FFE70020049043F64400C4F2020001688F
:1019200041F480410160006800F480400490049814
:10193000FFE7089820F0030043F60801C4F2010114
:1019400040580590089800F0030081000F2000FA2D
:1019500001F10598884305900A980021C4F202011C
:10196000884203D1FFE70020039034E00A9840F258
:101970000041C4F20201884203D1FFE70120029036
:1019800026E00A9840F60001C4F20201884203D121
:10199000FFE70220019018E00A9840F60041C4F2E7
:1019A0000201884203D1FFE7032000900AE00A9970
:1019B00041F20002C4F202020720914208BF042053
:1019C0000090FFE700980190FFE701980290FFE781
:1019D00002980390FFE70398C0B2089901F0030151
:1019E000890000FA01F105980843059005980899C7
:1019F00021F0030143F60802C4F20102885043F6C5
:101A00000840C4F2010000680590069905988843D3
:101A1000059009988079C006002805D5FFE706994A
:101A2000059808430590FFE7059843F60841C4F27E
:101A30000101086043F60C40C4F201000068059003
:101A400006990598884305900998807980060028B2
:101A500005D5FFE70699059808430590FFE7059827
:101A600043F60C41C4F20101086043F60440C4F29D
:101A7000010000680590069905988843059009982B
:101A800080798007002805D5FFE706990598084367
:101A90000590FFE7059843F60441C4F20101086090
:101AA00043F60040C4F201000068059006990598CD
:101AB0008843059009988079C00728B1FFE7069907
:101AC000059808430590FFE7059843F60041C4F2E6
:101AD00001010860FFE7FFE7FFE708980130089081
:101AE00059E60BB07047000082B00190ADF80210CB
:101AF00001980069BDF80210084204D0FFE70120F8
:101B00008DF8010003E000208DF80100FFE79DF84B
:101B1000010002B07047000082B00190ADF80210E1
:101B20008DF801209DF8010028B1FFE7BDF8020003
:101B30000199886105E0BDF80200000401998861FF
:101B4000FFE702B07047000041F6D050C2F200003B
:101B50000068704740F2F200C2F20000027841F6DD
:101B6000D051C2F2000108681044086070470000BC
:101B700080B582B043F60041C4F20201086840F427
:101B800000700860086840F480600860086840F4ED
:101B900080700860032000F08FF80020019000F0B2
:101BA00005F800F03BF8019802B080BD80B582B026
:101BB000009040F22000C2F20000006840F2F20102
:101BC000C2F200010A784FF47A71B1FBF2F1B0FB76
:101BD000F1F001F04DFF20B1FFE701208DF8070083
:101BE00018E000980F280DD8FFE700994FF0FF305C
:101BF000002200F047F8009840F2F401C2F2000120
:101C0000086003E001208DF8070003E000208DF854
:101C10000700FFE79DF8070002B080BD80B582B0E5
:101C2000FFE70020019043F64400C4F2020001687F
:101C300041F480410160006800F480400190019807
:101C4000FFE7FFE70020009043F64000C4F20200E7
:101C5000016841F080510160006800F08050009000
:101C60000098FFE7072000F027F802B080BD0000D1
:101C700080B582B08DF807009DF9070006F00AFED6
:101C800002B080BD80B586B08DF817000491039234
:101C90000020029006F016FE02909DF917000190B8
:101CA00002980499039A02F0A7FC0146019806F0F5
:101CB00011FE06B080BD000080B582B00190019891
:101CC00006F02AFE02B080BD82B001908DF80310AC
:101CD00002B0704782B00190ADF80210BDF802006A
:101CE000019909684862002002B0704784B00390EF
:101CF0008DF80B10ADF8082003980068406A00903A
:101D00009DF80B0048B9FFE7BDF80810009840EABD
:101D1000014003990968886233E003980068816A8A
:101D2000009800EB1140009000208DF80700FFE7BD
:101D30009DF807009DF80B100139884213D2FFE788
:101D4000039800689DF8071000EB8100D0F804119B
:101D5000009800EB11400090FFE79DF8070001306C
:101D60008DF80700E4E7BDF80810009840EA01404C
:101D7000039909689DF80B2001EB8201C1F800016D
:101D8000FFE7002004B0704780B582B00190019851
:101D9000D0F8080504F04CFB02B080BD80B582B0DD
:101DA00001908DF80310019AD2F808059DF80310F0
:101DB00001EBC10302EB8302D26C04F095F902B08F
:101DC00080BD000080B582B001908DF80310019AAB
:101DD000D2F808059DF8031001EBC10302EB830262
:101DE000D2F88C2204F04AFA02B080BD80B582B0ED
:101DF00001900198D0F8080504F020FB02B080BDE6
:101E000080B584B003908DF80B109DF80B00000690
:101E100000280CD5FFE703989DF80B1001F00F0187
:101E200001EBC10100EB81003C3001900CE0039814
:101E30009DF80B1001F00F0101EBC10100EB8100D7
:101E400000F51F700190FFE703980068019906F004
:101E50004BF98DF80A009DF80A0004B080BD00001F
:101E600080B584B002908DF807109DF80700000639
:101E700000280FD5FFE702989DF8071001F00F0129
:101E800001EBC10100EB81003C3000900099012082
:101E900048700FE002989DF8071001F00F0101EB68
:101EA000C10100EB810000F51F7000900099002037
:101EB0004870FFE79DF8070000F00F0000990870D8
:101EC000FFE7029890F8BC04012804D1FFE7022044
:101ED0008DF80F0014E00299012081F8BC04FFE79F
:101EE000FFE702980068009905F026FBFFE70299DA
:101EF000002081F8BC04FFE700208DF80F00FFE709
:101F00009DF80F0004B080BD80B584B002908DF8BC
:101F100007109DF8070000F00F00029949688842F9
:101F200004D9FFE701208DF80F004DE09DF8070070
:101F3000000600280FD5FFE702989DF8071001F072
:101F40000F0101EBC10100EB81003C3000900099D2
:101F5000012048700FE002989DF8071001F00F0172
:101F600001EBC10100EB810000F51F7000900099AA
:101F700000204870FFE70099002088709DF8070056
:101F800000F00F0000990870FFE7029890F8BC0479
:101F9000012804D1FFE702208DF80F0014E0029918
:101FA000012081F8BC04FFE7FFE702980068009970
:101FB00005F042FEFFE70299002081F8BC04FFE72C
:101FC00000208DF80F00FFE79DF80F0004B080BDE2
:101FD00082B001908DF8031001989DF8031001F074
:101FE0000F0101EBC10100EB8100D0F89C0202B0AF
:101FF0007047000080B586B004908DF80F10ADF8E2
:102000000C208DF80B3000208DF80A009DF80F0091
:10201000000600280FD5FFE704989DF80F1001F087
:102020000F0101EBC10100EB81003C3001900199EF
:10203000012048700FE004989DF80F1001F00F0187
:1020400001EBC10100EB810000F51F7001900199C7
:1020500000204870FFE79DF80F0000F00F00019985
:102060000870BDF80C000199C8609DF80B0001993B
:1020700008710198407820B1FFE70199087808813C
:10208000FFE79DF80B00022804D1FFE7019900202B
:102090004871FFE7FFE7049890F8BC04012804D1D9
:1020A000FFE702208DF8170015E00499012081F860
:1020B000BC04FFE7FFE704980068019905F0F6F813
:1020C000FFE70499002081F8BC04FFE79DF80A00AF
:1020D0008DF81700FFE79DF8170006B080BD0000DF
:1020E00080B586B005908DF8131003920293059881
:1020F0009DF8131001F00F0101EBC10100EB81000D
:1021000000F51F70019003980199086102980199E8
:102110008861019900200862019948709DF81300B8
:1021200000F00F000199087005980069012804D19A
:10213000FFE7039801994861FFE79DF81300000746
:1021400038B9FFE7059A10680199127C05F028FC60
:1021500006E0059A10680199127C05F011FEFFE770
:10216000002006B080BD000080B584B002908DF8DC
:1021700007109DF8070000F00F0002994968884297
:1021800004D9FFE701208DF80F0058E09DF8070003
:10219000000600280FD5FFE702989DF8071001F010
:1021A0000F0101EBC10100EB81003C300090009970
:1021B000012048700DE002989DF8071001EBC10165
:1021C00000EB810000F51F7000900099002048701E
:1021D000FFE70099012088709DF8070000F00F00CC
:1021E00000990870FFE7029890F8BC04012804D118
:1021F000FFE702208DF80F0021E00299012081F80D
:10220000BC04FFE7FFE702980068009905F064FD51
:102210009DF80700000740B9FFE7029A1068117C9B
:1022200002F2C44205F0B8FCFFE7FFE70299002084
:1022300081F8BC04FFE700208DF80F00FFE79DF850
:102240000F0004B080BD000080B586B005908DF809
:1022500013100392029305989DF8131001F00F01DB
:1022600001EBC10100EB81003C3001900398019922
:10227000086102980199886101990020086201991A
:10228000012048709DF8130000F00F0001990870BC
:1022900005980069012804D1FFE703980199486176
:1022A000FFE79DF81300000738B9FFE7059A1068AB
:1022B0000199127C05F074FB06E0059A10680199FB
:1022C000127C05F05DFDFFE7002006B080BD000038
:1022D00080B58CB00B900B9800680A900A98099012
:1022E0000B98006806F042F8002840F00D84FFE7E4
:1022F0000B98006806F0A6F810B9FFE700F004BCE0
:102300000998D0F80808C0F30D200B99C1F8FC0417
:102310000B98006806F096F88007002807D5FFE7BD
:102320000B980168486900F002004861FFE70B98CC
:10233000006806F087F8C006002862D5FFE70B9812
:102340000168886920F0100088610A98006A02908C
:102350000B98029901F00F0101EBC10100EB810024
:1023600000F51F700890029800F4F0110220B0EB05
:10237000514F23D1FFE7BDF8080047F6F07108423E
:102380001BD0FFE70A9808990969029AC2F30A125A
:1023900006F066F8029847F6F07100EA0103089A21
:1023A000106900EB13101061029800EA010208990D
:1023B000086A00EB12100862FFE71BE0029800F4C5
:1023C000F0110620B0EB514F12D1FFE70A980B999C
:1023D00001F2C441082206F043F8029847F6F07172
:1023E00000EA01020899086A00EB1210086200E096
:1023F000FFE7FFE70B980168886940F010008861EB
:10240000FFE70B98006806F01DF80003002840F174
:10241000A680FFE7002004900B98006805F0C0FF3D
:102420000690FFE70698002800F09880FFE79DF8E7
:102430001800C007002800F08A80FFE70B980068AA
:102440009DF8101005F0E6FF05909DF81400C007F8
:1024500060B1FFE70998049900EB41110120C1F830
:10246000080B0B98049902F04BF9FFE79DF8140054
:10247000000700280CD5FFE70998049900EB4111EB
:102480000820C1F8080B0B98049902F0F3F8FFE755
:102490009DF81400C006002808D5FFE709980499A4
:1024A00000EB41111020C1F8080BFFE79DF8140064
:1024B000800700282DD5FFE70A984069000600280C
:1024C00008D5FFE70999D1F8040840F48060C1F805
:1024D0000408FFE70B98049901EBC10100EB8100B0
:1024E00000F51F7008900898C078012809D1FFE70F
:1024F00008990020C8700B989DF8101000F014FB8C
:10250000FFE70998049900EB41110220C1F8080B7C
:10251000FFE79DF814008006002808D5FFE709981A
:10252000049900EB41112020C1F8080BFFE79DF84A
:1025300015008006002809D5FFE70998049900EBEB
:1025400041114FF40050C1F8080BFFE7FFE7049872
:102550000130049006984008069063E7FFE70B9867
:10256000006805F06FFF4003002840F1C680FFE7D8
:102570000B98006805F002FF069000200490FFE72A
:102580000698002800F0B880FFE79DF81800C00703
:10259000002800F0AA80FFE70B9800689DF8101053
:1025A00005F010FF05909DF81400C00700283ED0EC
:1025B000FFE7049800F00F01012000FA01F10391F8
:1025C000039B099AD2F834189943C2F83418099930
:1025D000049A01EB4211C1F808090B98006901281F
:1025E0001FD1FFE70B98049901EBC10100EB8101BA
:1025F0008A6CC86C1044C864049888B9FFE70B98CB
:10260000049901EBC10100EB8100406D40B9FFE787
:102610000B99086801F2C442012105F0BDFAFFE7F9
:10262000FFE70B989DF81010FFF7B8FBFFE79DF848
:1026300014000007002808D5FFE70998049900EB6B
:1026400041110820C1F80809FFE79DF81400C006F1
:10265000002808D5FFE70998049900EB41111020E4
:10266000C1F80809FFE79DF814004006002808D5C6
:10267000FFE70998049900EB41114020C1F80809CF
:10268000FFE79DF814008007002822D5FFE70A988D
:10269000049905F001FE0B98049901EBC10100EBD0
:1026A00081003C3008900898C078012809D1FFE7E4
:1026B00008990020C8700B989DF8101000F026FAB9
:1026C000FFE70998049900EB41110220C1F80809BD
:1026D000FFE79DF814000006002805D5FFE70B98DA
:1026E000049902F0F1F8FFE7FFE704980130049045
:1026F00006984008069043E7FFE70B98006805F04E
:10270000A1FEC00F00B3FFE70999D1F8040820F03B
:102710000100C1F804080B9890F8F404012808D1CE
:10272000FFE70B98002180F8F4140B98FFF7CCFA20
:1027300003E00B9800F0E2FBFFE70B9801684869A3
:1027400000F000404861FFE70B98006805F07AFE52
:102750000005002811D5FFE70998D0F80808C00740
:1027600020B1FFE70B9800F057FCFFE70B980168DA
:10277000486900F400604861FFE70B98006805F0C5
:1027800061FEC004002840F18680FFE70999D1F876
:10279000040820F00100C1F804080B98006810211B
:1027A00005F07AFD00200790FFE707980B9949682C
:1027B000884231D2FFE70998079900EB41114FF6A3
:1027C0007F30C1F808090999079A01EB4212D2F843
:1027D000001921F40011C2F800190999079A01EBB8
:1027E0004211C1F8080B0998079900EB4111D1F883
:1027F000000B20F40010C1F8000B0998079900EBBA
:102800004111D1F8000B40F00060C1F8000BFFE768
:10281000079801300790C8E70999D1F81C0840F0E3
:102820000110C1F81C080B98006B78B1FFE70999FB
:10283000D1F8840840F00B00C1F884080999D1F858
:10284000440840F00B00C1F844080FE00999D1F8A2
:10285000140842F22B021043C1F814080999D1F868
:10286000100840F00B00C1F81008FFE70999D1F8F3
:10287000000820F4FE60C1F800080B9A1068117C73
:1028800002F2C44205F088F90B980168486900F427
:1028900080504861FFE70B98006805F0D3FD800485
:1028A00000281FD5FFE70B98006804F06FFD0B9818
:1028B000006805F035FD0B99C8600B980068019021
:1028C00000F0FCFC014601980B9A127B05F0C0FE5B
:1028D0000B9800F0F7FA0B980168486900F4005073
:1028E0004861FFE70B98006805F0ACFD0007002881
:1028F0000AD5FFE70B9800F00BFB0B9801684869BD
:1029000000F008004861FFE70B98006805F09AFDA9
:102910000006002825D5FFE70A99886920F0800085
:10292000886101200490FFE704980B994968884268
:1029300016D2FFE70B98049901EBC10100EB81006F
:1029400090F87F02012806D1FFE70B989DF8101040
:10295000FFF756FAFFE7FFE7049801300490E3E73A
:10296000FFE70B98006805F06DFDC00200283ED51A
:10297000FFE701200490FFE704980B99496888421B
:102980002ED2FFE70998049900EB4110D0F8000916
:1029900002900B98049901EBC10100EB810090F8C3
:1029A0004000012817D1FFE79DF80B000006002822
:1029B00011D5FFE70B98049901EBC10100EB8101F0
:1029C000012081F83F000B989DF8101041F0800124
:1029D000FFF716FAFFE7FFE7049801300490CBE712
:1029E0000B980168486900F480104861FFE70B9874
:1029F000006805F027FD8002002855D5FFE701207B
:102A00000490FFE704980B994968884245D2FFE794
:102A10000998049900EB4110D0F8000B02900B9834
:102A2000049901EBC10100EB810090F880020128BC
:102A30002ED1FFE79DF80B000006002828D5FFE700
:102A4000029800F480300B99D1F8FC1401F00101D8
:102A500088421DD1FFE70B98049901EBC10100EBFF
:102A60008101012081F87F020A99886940F0800085
:102A700088610A9840690006002808D4FFE7099990
:102A8000D1F8040840F40070C1F8040805E0FFE73D
:102A9000FFE7049801300490B4E70B980168486997
:102AA00000F400104861FFE70B98006805F0CAFCCD
:102AB000400000280AD5FFE70B98FFF765F90B984F
:102AC0000168486900F080404861FFE70B980068A2
:102AD00005F0B8FC4007002815D5FFE70B98006803
:102AE000406802909DF808004007002804D5FFE7E1
:102AF0000B98FFF77BF9FFE7029A0B98016848688B
:102B000010434860FFE7FFE70CB080BD80B582B09E
:102B100001908DF803100198D0F808059DF8031076
:102B200003F028FD02B080BD80B582B001908DF821
:102B300003100198D0F808059DF8031003F052FD2A
:102B400002B080BD2DE9F04F97B01590159820B9CF
:102B5000FFE701208DF85B0049E1159800681490AB
:102B6000159890F8BD0440B9FFE71599002081F849
:102B7000BC04159800F040F9FFE71599032081F88F
:102B8000BD041498C06BC005002804D4FFE7159954
:102B900000200861FFE71598006804F0F7FE15981B
:102BA00010900168119141688268C368D0F810C024
:102BB00044698569C669076AD0F82480D0F82890EE
:102BC000D0F82CA0D0F830B0D0F834E0684612909D
:102BD000C0F824E01198DDF848E0CEF820B0CEF837
:102BE0001CA0CEF81890CEF81480CEF81070CEF855
:102BF0000C60CEF80850CEF80440CEF800C004F0C7
:102C0000DBFB40B1FFE71599022081F8BD040120EC
:102C10008DF85B00EBE01598006800210F9105F03E
:102C200079FC0F988DF84F00FFE79DF84F0015993C
:102C30004968884245D2FFE715989DF84F1001EB8F
:102C4000C10100EB8101012081F83D009DF84F009A
:102C5000159900EBC00201EB820181F83C009DF860
:102C60004F00159900EBC00201EB8201A1F844006E
:102C700015989DF84F1001EBC10100EB8101002078
:102C800081F8400015999DF84F2002EBC20201EB3C
:102C90008201886415999DF84F2002EBC20201EB76
:102CA0008201C86415999DF84F2002EBC20201EB26
:102CB00082014865FFE79DF84F0001308DF84F0015
:102CC000B3E700208DF84F00FFE79DF84F001599FE
:102CD000496888423ED2FFE715989DF84F1001EBF6
:102CE000C10100EB8101002081F87D029DF84F10A9
:102CF000159A01EBC10302EB830282F87C1215994D
:102D00009DF84F2002EBC20201EB820181F88002A4
:102D100015999DF84F2002EBC20201EB8201C1F828
:102D2000880215999DF84F2002EBC20201EB820147
:102D3000C1F88C0215999DF84F2002EBC20201EBFD
:102D40008201C1F89402FFE79DF84F0001308DF831
:102D50004F00BAE715980C9001680D9141688268A0
:102D6000C368D0F810C044698569C669076AD0F89D
:102D70002480D0F82890D0F82CA0D0F830B0D0F82B
:102D800034E068460E90C0F824E00D98DDF838E095
:102D9000CEF820B0CEF81CA0CEF81890CEF8148053
:102DA000CEF81070CEF80C60CEF80850CEF8044083
:102DB000CEF800C004F088FC40B1FFE7159902206E
:102DC00081F8BD0401208DF85B0010E0159900200A
:102DD0000B9081F838001599012081F8BD041598F1
:102DE000006804F05BFC0B988DF85B00FFE79DF832
:102DF0005B0017B0BDE8F08F80B58CB00B90002061
:102E00000A9009900890079006900B980068B0F11E
:102E1000A04F54D1FFE7FFE70020059043F63000B4
:102E2000C4F20200016841F001010160006800F095
:102E3000010005900598FFE74FF400700690002010
:102E40000190079008900020C4F20200029006A9A9
:102E50000391FEF797FC019A029803994FF4E0530F
:102E60000693022307930892032209920A220A92E8
:102E7000FEF788FCFFE743F63401C4F2020108685C
:102E800040F080000860FFE70020049043F6440013
:102E9000C4F20200016841F480410160006800F45E
:102EA000804004900498FFE7FFE743200090002251
:102EB0001146FEF7E7FE0098FEF7DAFEFFE70CB0DA
:102EC00080BD000080B582B0019001208DF8030024
:102ED0000198C068022803D0FFE7FEF7FBFBFFE77D
:102EE0000198D0F808059DF8031003F07BFC0198C9
:102EF000D0F8080503F0F6FB02B080BD80B582B0C3
:102F000001900198D0F8080503F03AFC02B080BDAA
:102F100080B582B001900198D0F8080503F042FC1A
:102F200002B080BD80B584B002908DF80710FFE735
:102F3000029890F8BC04012804D1FFE702208DF824
:102F40000F001AE00299012081F8BC04FFE7FFE7B7
:102F50009DF80700029981F83800029800689DF8F2
:102F6000071005F047FBFFE70299002081F8BC0439
:102F7000FFE700208DF80F00FFE79DF80F0004B079
:102F800080BD000080B582B001900199D1F808059C
:102F900001F2C44103F050FC02B080BD80B584B0A2
:102FA0000290029800680190FFE7029890F8BC0434
:102FB000012804D1FFE702208DF80F0027E00299D5
:102FC000012081F8BC04FFE7FFE70298806A01282E
:102FD0000BD1FFE702988069012806D0FFE701992D
:102FE000886B40F480308863FFE70298006805F042
:102FF00009F90298006804F03BFBFFE70299002002
:1030000081F8BC04FFE700208DF80F00FFE79DF872
:103010000F0004B080BD000080B582B0019001981F
:10302000D0F8080503F08AFC01980168D1F8000E79
:1030300040F00100C1F8000E0198006A48B1FFE7B6
:103040004EF61051CEF20001086840F0060008600C
:10305000FFE702B080BD000080B584B0029001910E
:10306000029820B9FFE701208DF80F0021E10198B7
:1030700043F60041C4F20201096801F007018842E9
:1030800012D9FFE7019943F60040C4F20200017033
:10309000006800F007000199884204D0FFE7012092
:1030A0008DF80F0005E1FFE70298007880070028FF
:1030B0002AD5FFE7029800784007002809D5FFE7E6
:1030C00043F60801C4F20201086840F4E0500860C9
:1030D000FFE7029800780007002809D5FFE743F6CC
:1030E0000801C4F20201086840F460400860FFE78C
:1030F00043F60801C4F20201086820F0F000029AC9
:10310000926810430860FFE702980078C007002823
:103110006ED0FFE702984068012811D1FFE743F61F
:103120000000C4F20200006800F400310020B0EB9F
:10313000514F04D1FFE701208DF80F00B9E02CE0DA
:1031400002984068022805D0FFE7029840680328EB
:1031500011D1FFE743F60000C4F20200006800F05E
:1031600000710020B0EB516F04D1FFE701208DF812
:103170000F009EE010E043F60000C4F20200006879
:1031800000F002010020B0EB510F04D1FFE7012055
:103190008DF80F008DE0FFE7FFE743F60801C4F26A
:1031A0000201086820F00300029A52681043086088
:1031B000FEF7CAFC0090FFE743F60800C4F20200E5
:1031C000006800F00C0002994968B0EB810F0ED046
:1031D000FFE7FEF7B9FC0099401A41F289318842B5
:1031E00004D3FFE703208DF80F0062E0E4E7FFE778
:1031F000019843F60041C4F20201096801F0070199
:10320000884212D2FFE7019943F60040C4F202005F
:103210000170006800F007000199884204D0FFE7C0
:1032200001208DF80F0044E0FFE702980078400786
:1032300000280CD5FFE743F60801C4F20201086834
:1032400020F4E050029AD26810430860FFE7029829
:103250000078000700280DD5FFE743F60801C4F207
:103260000201086820F46040029A126940EAC20034
:103270000860FFE700F028F843F60801C4F20201F5
:103280000968C9B20A0949F22431C0F60001895C13
:10329000C84040F22001C2F20001086040F2F40090
:1032A000C2F200000068FEF781FC00208DF80F00DC
:1032B000FFE79DF80F0004B080BD000040F2200041
:1032C000C2F200000068704780B586B0002005900B
:1032D00004900390029043F60800C4F202000068D4
:1032E00000F00C000146019140B1FFE7019804286D
:1032F0000AD0FFE7019808280CD04FE042F20040C6
:10330000C0F2F40002904FE041F20020C0F27A00D7
:10331000029049E043F60400C4F20200016801F0A3
:103320003F01059100684002002813D5FFE743F6EE
:103330000400C4F202000068C0F3881041F20021CA
:10334000C0F27A01A0FB0101059A0023FCF7EAFF15
:10335000049012E043F60400C4F202000068C0F3D7
:10336000881042F20041C0F2F401A0FB0101059A6D
:103370000023FCF7D7FF0490FFE743F60400C4F2F4
:103380000200006800F44031022000EBD1300390CD
:1033900004980399B0FBF1F0029005E042F200407E
:1033A000C0F2F4000290FFE7029806B080BD000072
:1033B00080B586B00490049820B9FFE701208DF80D
:1033C000170050E304980078C007002800F0A5809B
:1033D000FFE743F60800C4F20200006800F00C00AA
:1033E000042813D0FFE743F60800C4F20200006887
:1033F00000F00C0008281ED1FFE743F60400C4F2D9
:10340000020000684002002815D5FFE743F60000DF
:10341000C4F20200006800F400310020B0EB514F0C
:1034200008D0FFE70498406820B9FFE701208DF835
:10343000170018E370E0FFE704984068B0F5803F9C
:1034400009D1FFE743F60001C4F20201086840F425
:103450008030086020E004984068B0F5A02F0DD1BE
:10346000FFE743F60001C4F20201086840F480203F
:103470000860086840F4803008600CE043F6000102
:10348000C4F20201086820F480300860086820F463
:1034900080200860FFE7FFE7FFE704984068E8B195
:1034A000FFE7FEF751FB0390FFE743F60000C4F28D
:1034B0000200006800F400310020B0EB514F0CD145
:1034C000FFE7FEF741FB0399401A652804D3FFE7A5
:1034D00003208DF81700C6E2E7E71CE0FEF734FB97
:1034E0000390FFE743F60000C4F20200006800F416
:1034F00000310020B0EB514F0CD0FFE7FEF724FB6A
:103500000399401A652804D3FFE703208DF81700BC
:10351000A9E2E7E7FFE7FFE7FFE704980078800705
:10352000002840F19680FFE743F60800C4F202004D
:10353000006810F00C0F13D0FFE743F60800C4F248
:103540000200006800F00C0008282CD1FFE743F6C9
:103550000400C4F2020000684002002823D4FFE700
:1035600043F60000C4F20200006800F002010020EF
:10357000B0EB510F09D0FFE70498C068012804D0D0
:10358000FFE701208DF817006DE243F60001C4F259
:103590000201086820F0F800049A126940EAC200AB
:1035A0000860FFE754E00498C06870B3FFE70021AB
:1035B000C4F2472101200860FEF7C6FA0390FFE736
:1035C00043F60000C4F20200006800F0020100208F
:1035D000B0EB510F0CD1FFE7FEF7B6FA0399401A92
:1035E000032804D3FFE703208DF817003BE2E7E749
:1035F00043F60001C4F20201086820F0F800049AC2
:10360000126940EAC200086021E00021C4F24721AB
:1036100000200860FEF798FA0390FFE743F60000E9
:10362000C4F20200006800F002010020B0EB510F6C
:103630000CD0FFE7FEF788FA0399401A032804D359
:10364000FFE703208DF817000DE2E7E7FFE7FFE74C
:10365000FFE704980078000700284BD5FFE704989F
:10366000406918B3FFE740F68061C4F247210120AA
:103670000860FEF769FA0390FFE743F67400C4F2AE
:103680000200006800F002010020B0EB510F0CD1E5
:10369000FFE7FEF759FA0399401A032804D3FFE71E
:1036A00003208DF81700DEE1E7E722E040F68061B5
:1036B000C4F2472100200860FEF746FA0390FFE7B6
:1036C00043F67400C4F20200006800F0020100201A
:1036D000B0EB510F0CD0FFE7FEF736FA0399401A12
:1036E000032804D3FFE703208DF81700BBE1E7E7C9
:1036F000FFE7FFE7049800784007002840F1CE80FC
:10370000FFE700208DF8070043F64000C4F20200F6
:103710000068C000002815D4FFE7FFE700200090F4
:1037200043F64000C4F20200016841F0805101609C
:10373000006800F0805000900098FFE701208DF8AD
:103740000700FFE747F20000C4F200000068C00570
:10375000002822D4FFE747F20001C4F20001086804
:1037600040F480700860FEF7EFF90390FFE747F23E
:103770000000C4F200000068C00500280CD4FFE778
:10378000FEF7E2F90399401A032804D3FFE7032068
:103790008DF8170067E1EAE7FFE7FFE70498806824
:1037A000012809D1FFE743F67001C4F2020108685D
:1037B00040F0010008601FE00498806805280DD1E2
:1037C000FFE743F67001C4F20201086840F004000C
:1037D0000860086840F0010008600CE043F67001E2
:1037E000C4F20201086820F001000860086820F0B7
:1037F00004000860FFE7FFE7FFE704988068F8B17E
:10380000FFE7FEF7A1F90390FFE743F67000C4F26B
:103810000200006800F002010020B0EB510F0ED151
:10382000FFE7FEF791F90399401A41F28931884286
:1038300004D3FFE703208DF8170014E1E5E71EE04D
:10384000FEF782F90390FFE743F67000C4F202002E
:10385000006800F002010020B0EB510F0ED0FFE72E
:10386000FEF772F90399401A41F28931884204D374
:10387000FFE703208DF81700F5E0E5E7FFE79DF887
:103880000700012809D1FFE743F64001C4F2020115
:10389000086820F080500860FFE7FFE7049880691F
:1038A000002800F0DC80FFE743F60800C4F20200C5
:1038B000006800F00C00082800F08580FFE70498FD
:1038C000806902285CD1FFE76021C4F24721002013
:1038D0000860FEF739F90390FFE743F60000C4F2F1
:1038E0000200006800F000710020B0EB516F0CD0B6
:1038F000FFE7FEF729F90399401A032804D3FFE7ED
:1039000003208DF81700AEE0E7E70499C869D1F805
:1039100020C04B6A8A6A40EA0C0040EA8310D20356
:103920004FF6FF739A43A2F580321043C96A40EA0A
:10393000016043F60401C4F2020108606021C4F290
:10394000472101200860FEF7FFF80390FFE743F6E8
:103950000000C4F20200006800F000710020B0EB2B
:10396000516F0CD1FFE7FEF7EFF80399401A0328D7
:1039700004D3FFE703208DF8170074E0E7E721E0A8
:103980006021C4F2472100200860FEF7DDF80390B3
:10399000FFE743F60000C4F20200006800F0007187
:1039A0000020B0EB516F0CD0FFE7FEF7CDF8039984
:1039B000401A032804D3FFE703208DF8170052E0D4
:1039C000E7E7FFE74AE004988069012804D1FFE7B0
:1039D00001208DF8170046E043F60400C4F202000F
:1039E0000068029004988069012831D0FFE70298AE
:1039F00000F480000499C969884229D1FFE7029840
:103A000000F03F000499096A884221D1FFE702983B
:103A100047F6C07108400499496AB0EB811F17D17D
:103A2000FFE7029800F440300499896AC9034FF611
:103A3000FF729143A1F58031884209D1FFE70298D6
:103A400000F070600499C96AB0EB016F04D0FFE721
:103A500001208DF8170006E0FFE7FFE7FFE70020F1
:103A60008DF81700FFE79DF8170006B080BD000035
:103A700080B582B00190019800F0E0FF02B080BDF7
:103A800081B0009001B0704781B0009001B07047E4
:103A900085B003900291FFE7039890F83C0001285D
:103AA00004D1FFE702208DF813006CE00399012098
:103AB00081F83C00FFE7FFE70399022081F83D0011
:103AC000039800684068019003980068806800903F
:103AD000019820F070000190029801680198084355
:103AE00001900198039909684860039800680021D3
:103AF000C4F2010188422AD0FFE703980068B0F1C0
:103B0000804F24D0FFE70398006840F20041C4F2E0
:103B1000000188421BD0FFE70398006840F60001CF
:103B2000C4F20001884212D0FFE70398006840F613
:103B30000041C4F20001884209D0FFE70398006801
:103B400044F20001C4F2010188420ED1FFE700985F
:103B500020F080000090029841680098084300908F
:103B60000098039909688860FFE70399012081F8AC
:103B70003D00FFE70399002081F83C00FFE70020AB
:103B80008DF81300FFE79DF8130005B070470000A3
:103B900080B582B00090009820B9FFE701208DF831
:103BA00007003FE0009890F83D0040B9FFE700991A
:103BB000002081F83C00009800F038F8FFE70099F9
:103BC000022081F83D00009951F8040B00F0D2FF6B
:103BD0000099012081F84600FFE70099012081F853
:103BE0003E00009981F83F00009981F8400000995B
:103BF00081F84100FFE7FFE70099012081F84200CA
:103C0000009981F84300009981F84400009981F8F7
:103C10004500FFE70099012081F83D0000208DF864
:103C20000700FFE79DF8070002B080BD80B584B0B3
:103C3000039003980068B0F1804F1BD1FFE7FFE7C6
:103C40000020029043F64000C4F20200016841F0F7
:103C500001010160006800F0010002900298FFE796
:103C60001C20019000221146FEF70CF80198FDF788
:103C7000FFFFFFE704B080BD83B00190019890F88A
:103C80003D00012804D0FFE701208DF80B0058E02B
:103C90000199022081F83D0001980168C86840F050
:103CA0000100C860019800680021C4F20101884247
:103CB0002AD0FFE701980068B0F1804F24D0FFE7D9
:103CC0000198006840F20041C4F2000188421BD014
:103CD000FFE70198006840F60001C4F20001884245
:103CE00012D0FFE70198006840F60041C4F20001DD
:103CF000884209D0FFE70198006844F20001C4F24D
:103D00000101884212D1FFE701980068806800F045
:103D1000070000900098062807D0FFE70198016887
:103D2000086840F001000860FFE706E001980168BC
:103D3000086840F001000860FFE700208DF80B00E4
:103D4000FFE79DF80B0003B07047000080B586B018
:103D50000490039100208DF80B00FFE7049890F881
:103D60003C00012804D1FFE702208DF81700ABE0EA
:103D70000499012081F83C00FFE7FFE70499022045
:103D800081F83D000498006880680190019820F057
:103D900077000190019820F47F40019001980499E8
:103DA00009688860039800680090002872D0FFE7D7
:103DB000009810286ED0FFE7009820286AD0FFE70F
:103DC0000098302866D0FFE70098402855D0FFE7DC
:103DD0000098502837D0FFE70098602840D0FFE7D0
:103DE000009870280BD0FFE70098B0F5805F05D0F1
:103DF000FFE70098B0F5005F16D052E055E0049858
:103E00000068039B5A689968DB6800F051FF0498CA
:103E1000006880680190019840F077000190019857
:103E200004990968886040E004980068039B5A6818
:103E30009968DB6800F03CFF04980168886840F4EA
:103E40008040886031E004980068039A5168D26825
:103E500000F05EFF04980068502100F043FF24E06A
:103E600004980068039A5168D26800F079FF0498BA
:103E70000068602100F036FF17E004980068039A9C
:103E80005168D26800F044FF04980068402100F0B7
:103E900029FF0AE0049800680399096800F022FFEE
:103EA00003E001208DF80B00FFE70499012081F861
:103EB0003D00FFE70499002081F83C00FFE79DF8F2
:103EC0000B008DF81700FFE79DF8170006B080BDC6
:103ED00081B0009001B0704780B582B00190019828
:103EE0000068006900F002010020B0EB510F28D0FB
:103EF000FFE701980068C06800F002010020B0EB05
:103F0000510F1DD0FFE7019801686FF002000861B2
:103F1000019901200877019800688069800720B125
:103F2000FFE70198FFF7D4FF06E0019800F012F9CF
:103F3000019800F013F9FFE7019900200877FFE7E7
:103F4000FFE701980068006900F004010020B0EB71
:103F5000910F29D0FFE701980068C06800F00401C4
:103F60000020B0EB910F1ED0FFE7019801686FF0C1
:103F700004000861019902200877019800688069AF
:103F800010F4407F04D0FFE70198FFF7A1FF06E09F
:103F9000019800F0DFF8019800F0E0F8FFE70199E0
:103FA00000200877FFE7FFE701980068006900F04C
:103FB00008010020B0EBD10F28D0FFE7019800687E
:103FC000C06800F008010020B0EBD10F1DD0FFE762
:103FD000019801686FF008000861019904200877D2
:103FE00001980068C069800720B1FFE70198FFF7DA
:103FF0006FFF06E0019800F0ADF8019800F0AEF810
:10400000FFE7019900200877FFE7FFE701980068C4
:10401000006900F010010020B0EB111F29D0FFE76C
:1040200001980068C06800F010010020B0EB111F7B
:104030001ED0FFE7019801686FF010000861019938
:104040000820087701980068C06910F4407F04D008
:10405000FFE70198FFF73CFF06E0019800F07AF8CF
:10406000019800F07BF8FFE7019900200877FFE74F
:10407000FFE7019800680069C00780B1FFE7019879
:104080000068C068C00748B1FFE7019801686FF099
:1040900001000861019800F065F8FFE7FFE701986B
:1040A00000680069C1B20020B0EBD11F13D0FFE758
:1040B00001980068C068C1B20020B0EBD11F09D0E0
:1040C000FFE7019801686FF0800008610198FFF731
:1040D000D7FCFFE7FFE701980068006900F04001A6
:1040E0000020B0EB911F14D0FFE701980068C06872
:1040F00000F040010020B0EB911F09D0FFE70198CC
:1041000001686FF040000861019800F059F8FFE77E
:10411000FFE701980068006900F020010020B0EB83
:10412000511F14D0FFE701980068C06800F020011B
:104130000020B0EB511F09D0FFE7019801686FF034
:10414000200008610198FFF79FFCFFE7FFE702B03E
:1041500080BD000081B0009001B0704781B0009038
:1041600001B0704780B584B0039003980068B0F147
:10417000804F23D1FFE741F6CE50C2F20000007815
:10418000D8B9FFE70020C4F2020001900221FDF738
:10419000ABFC0146019841F6CC52C2F200020292F9
:1041A00011700421FDF7A0FC0299487041F6CE5130
:1041B000C2F2000101200870FFE7FFE704B080BDF4
:1041C00081B0009001B07047FFE7FEE783B0029036
:1041D00001918DF8032000208DF802008DF8020077
:1041E000FFE79DF802009DF80310884229DAFFE7F7
:1041F0000298000F092809D8FFE70298000F303015
:1042000001999DF8022001F8120009E00299372077
:1042100000EB117001999DF8022001F81200FFE7F0
:1042200002980001029001989DF8021000EB4101F4
:1042300000204870FFE79DF8020001308DF8020071
:10424000CFE703B07047000080B59AB00020199006
:104250001890179016901590FFE70020149043F6E1
:104260003000C4F20200016841F0100101600068F2
:1042700000F0100014901498FFE7FFE7002013905F
:1042800043F63000C4F20200016841F0040101600D
:10429000006800F0040013901398FFE7FFE7002088
:1042A000129043F63000C4F20200016841F0800130
:1042B0000160006800F0800012901298FFE7FFE7AD
:1042C0000020119043F63000C4F20200016841F072
:1042D00001010160006800F0010011901198FFE7F2
:1042E000FFE70020109043F63000C4F2020001689E
:1042F00041F002010160006800F002001090109887
:10430000FFE7FFE700200F9043F63000C4F2020001
:10431000016841F008010160006800F008000F909A
:104320000F98FFE741F20000C4F20200009008215C
:10433000019100220B92FDF7EFFB40F60000C4F262
:104340000200089001220A921146FDF7E5FB0B9A44
:1043500040F60040C4F2020009904FF210010591AE
:10436000FDF7DAFB00980B9904220C921592169136
:10437000179115A90E91FDF705FA0098DDF804C014
:104380000A9B0B9A0E99CDF854C016931792189267
:10439000FDF7F8F900980B9A0E99302315934FF416
:1043A0009013029316931792FDF7ECF908980A9B65
:1043B0000B9A0E991593169317921892FDF7E2F93E
:1043C000019B08980B9A0E99159302230693169356
:1043D00017921892052204921992FDF7D3F9029AC6
:1043E0000A9B0B980E991593169217900020C4F211
:1043F00002000390FDF7C6F903980B9A0E99062365
:104400000793159316921792FDF7BCF90398DDF800
:1044100018C0079A0B9B0E994FF0100ECDF854E080
:10442000CDF858C0179318931992FDF7ABF903987C
:10443000049ADDF818C00B9B0E994FF0E00ECDF8F2
:1044400054E0CDF858C01793032318931992FDF741
:1044500099F90498069B0B9A0E994FF4A05CCDF83D
:1044600054C0169317921892199040F20040C4F26B
:1044700002000D90FDF786F9DDF814C009980A9B3B
:104480000B9A0E99CDF854C0169317921892FDF717
:1044900079F9DDF818C0079A08980B9B0E994FF42C
:1044A000A45ECDF854E0CDF858C017931893199234
:1044B000FDF768F909980B9A0E9920231593169227
:1044C0001792FDF75FF9DDF828C00B9B0C9A0D9849
:1044D0000E994FF4107ECDF854E04FF0120ECDF847
:1044E00058E0CDF85CC018931992FDF74BF91AB05B
:1044F00080BD000080B588B0002101910791069130
:10450000059104910391029141F68450C2F200009A
:104510004FF0804202602F224260816048F29F6229
:10452000C0F20102C26001618161FFF731FB18B185
:10453000FFE7FDF7CFF8FFE74FF48050049041F616
:104540008450C2F2000004A9FFF700FC18B1FFE795
:10455000FDF7C0F8FFE700200290039041F6845079
:10456000C2F2000002A9FFF793FA18B1FFE7FDF7C6
:10457000B1F8FFE708B080BD80B541F29C50C2F2AF
:10458000000040F20401C2F20001002201F03AFDF5
:1045900018B1FFE7FDF79EF8FFE741F29C50C2F229
:1045A000000040F22401C2F2000102F02BFA18B11F
:1045B000FFE7FDF78FF8FFE741F29C50C2F20000E1
:1045C00040F2C001C2F2000100F056FF18B1FFE74F
:1045D000FDF780F8FFE741F29C50C2F2000002F0C4
:1045E0009BFB18B1FFE7FDF775F8FFE780BD000002
:1045F000FFE7FEE7FFE7FEE788B007900691059228
:10460000079800F0070004900498C0F107000528FF
:1046100003D3FFE70420019004E00498C0F10700F1
:104620000190FFE70198039004980430062803D80E
:10463000FFE70020009003E0049803380090FFE7B4
:104640000098029006980399012202FA01F10139BB
:104650000840029B984005999A40013A114008434E
:1046600008B0704780B541F67800C2F20000FDF74F
:104670002FFE80BD80B586B0059004910598006836
:104680000390039802900398006C0190029804999B
:1046900000EB4110D0F8080B0090019843F20B0199
:1046A000C4F6547188420FD3FFE79DF8010000065D
:1046B000002809D5FFE70298049900EB41114FF457
:1046C0000040C1F8080BFFE70598FEF75BFC019876
:1046D00043F20B01C4F6547188420DD3FFE70598ED
:1046E0000069012808D1FFE70599086801F2C44272
:1046F000012103F051FAFFE7002006B080BD000061
:1047000080B588B0079006910798006804900498D7
:1047100003900498006C02900398069900EB4110F6
:10472000D0F8080B019007980069012840F08180BB
:10473000FFE79DF804000007002818D5FFE702985E
:1047400043F20B01C4F6547188420FD3FFE79DF882
:1047500005000006002809D5FFE70398069900EB3D
:1047600041114FF40040C1F8080BFFE760E09DF8ED
:1047700004008006002808D5FFE70398069900EB9F
:1047800041112020C1F8080B51E09DF8040010F001
:10479000280F4AD1FFE7029843F20B01C4F6547187
:1047A00088420FD3FFE79DF805000006002809D5D1
:1047B000FFE70398069900EB41114FF40040C1F860
:1047C000080B31E00798069901EBC10100EB81006D
:1047D00000F51F7005900598C0690399069A01EBD2
:1047E0004211D1F8101B6FF3DF41401A059908629E
:1047F000069898B9FFE70598806940B9FFE70799DF
:10480000086801F2C442012103F0C6F905E00599E8
:1048100008690A6A10440861FFE7FFE707989DF8F6
:104820001810FDF7CFFAFFE700E0FFE7FFE7FFE72B
:1048300047E0029843F20A11C4F65471884224D129
:10484000FFE79DF805000006002809D5FFE703985B
:10485000069900EB41114FF40040C1F8080B13E03A
:104860009DF804008006002808D5FFE70398069904
:1048700000EB41112020C1F8080BFFE707989DF8D5
:104880001810FDF79FFAFFE71AE0069890B9FFE7C6
:104890000798069901EBC10100EB8100D0F8940262
:1048A00040B9FFE70799086801F2C442002103F00C
:1048B00073F9FFE707989DF81810FDF783FAFFE7F3
:1048C000FFE7002008B080BD80B58CB00A90099148
:1048D0000A9800680890089807900A98099901EBCF
:1048E000C10100EB81003C30069006988169006AA6
:1048F000884204D9FFE701208DF82F0079E006995E
:104900008869096A401A059005980699C96888421D
:1049100004D9FFE70698C0680590FFE705980330C3
:1049200080080490FFE70798099900EB4110D0F840
:10493000180981B2049A0020914202900FD3FFE738
:1049400006988269016A00209142029007D2FFE72F
:1049500006988069002818BF01200290FFE702989E
:10496000C00770B3FFE706998869096A401A059085
:1049700005980699C968884204D9FFE70698C06877
:104980000590FFE705980330800804900898069981
:1049900009699DF82420BDF81430DDF828C09CF882
:1049A00010C0EE46CEF800C003F030FF059A06991D
:1049B000086910440861059A0699086A104408625B
:1049C000B1E706998869096A88420ED8FFE7099815
:1049D00000F00F01012088400390039A0799D1F855
:1049E00034089043C1F83408FFE700208DF82F0009
:1049F000FFE79DF82F000CB080BD0000704700005D
:104A00007047000084B003900398009000980078ED
:104A1000ADF8080000980130009000980078ADF8DB
:104A20000600BDF80610BDF8080040EA0120ADF808
:104A30000A00BDF80A0004B07047000080B582B0DB
:104A4000009000980138B0F1807F03D3FFE7012088
:104A5000019019E0009801384EF21401CEF20001E5
:104A600008604FF0FF300F2103F034FF4EF21801C1
:104A7000CEF20001002008604EF21002CEF20002D9
:104A8000072111600190FFE7019802B080BD00008E
:104A900080B5FDF75FF880BD80B594B008A83021DF
:104AA000FBF7EDFC00200790069005900490039022
:104AB000FFE70020029043F64000C4F202000168C4
:104AC00041F080510160006800F08050029002982F
:104AD000FFE7FFE70020019047F20000C4F200006A
:104AE000016841F440410160006800F440400190D9
:104AF0000198FFE7012008904FF4803009900220D0
:104B00000E904FF480000F9004201090C02111915E
:104B100012900820139008A8FEF74AFC18B1FFE78E
:104B2000FCF7D8FDFFE70F2003900220049000203F
:104B300005904FF4A0510691079003A80321FEF7BA
:104B40008BFA18B1FFE7FCF7C5FDFFE714B080BD95
:104B50004EF68851CEF20001086840F470000860FB
:104B60007047000080B541F68450C2F20000FFF7A4
:104B7000B3F980BD83B00290019102980068009063
:104B800002980021C4F2010188421DD0FFE702987B
:104B9000B0F1804F18D0FFE7029840F20041C4F214
:104BA0000001884210D0FFE7029840F60001C4F2ED
:104BB0000001884208D0FFE7029840F60041C4F2A5
:104BC000000188420AD1FFE7009820F070000090B1
:104BD00001984168009808430090FFE7029800217F
:104BE000C4F20101884235D0FFE70298B0F1804F4E
:104BF00030D0FFE7029840F20041C4F20001884241
:104C000028D0FFE7029840F60001C4F20001884274
:104C100020D0FFE7029840F60041C4F2000188422C
:104C200018D0FFE7029844F20001C4F20101884263
:104C300010D0FFE7029844F20041C4F2010188421B
:104C400008D0FFE7029844F60001C4F2010188424F
:104C50000AD1FFE7009820F4407000900198C168E5
:104C6000009808430090FFE7009820F08000019929
:104C7000496908430090009802990860019880688B
:104C80000299C8620198006802998862029800211E
:104C9000C4F20101884205D1FFE701980069029939
:104CA0000863FFE702990120486103B070470000E4
:104CB00085B004900391029201930498806800905B
:104CC000009820F47F40009003980299019A41EAED
:104CD00002210143009808430090009804998860DD
:104CE00005B0704783B002900191029880680090EF
:104CF000009820F07000009001980099084340F05F
:104D00000700009000980299886003B07047000087
:104D100085B00490039102920498006A009004996F
:104D2000086A20F0010008620498806901900198E7
:104D300020F0F00001900299019840EA01100190E2
:104D4000009820F00A000090039900980843009012
:104D500001980499886100980499086205B0704729
:104D600085B00490039102920499086A20F0100023
:104D700008620498806901900498006A0090019884
:104D800020F4704001900299019840EA01300190AE
:104D9000009820F0A00000900399009840EA0110CC
:104DA000009001980499886100980499086205B000
:104DB0007047000080B586B004908DF80F100498FD
:104DC000D0F8C80201900498D0F8D41200EB81000A
:104DD000D0F8C00220B9FFE703208DF817005FE08C
:104DE0000498D0F8D41200EB8100D0F8C0020290F1
:104DF00004989DF80F1001F00F0101EB810100EB09
:104E00008100806940B3FFE704989DF80F1001F01E
:104E10000F0101EB810200EB82008269019801EB36
:104E2000C10100EB8100816CB2FBF1F000FB1120AD
:104E300090B9FFE704989DF80F1001F00F0101EB06
:104E4000810100EB81000023836104989DF80F101D
:104E50001A4601F083FD1FE002990020C1F81402F8
:104E60000498D0F8D41200EB8100D0F8C402006995
:104E700088B1FFE70498D0F8D41200EB8100D0F895
:104E8000C40203690299D1F8080201F504719DF882
:104E90000F209847FFE7FFE700208DF81700FFE796
:104EA0009DF8170006B080BD80B584B002908DF8E3
:104EB00007100298D0F8D41200EB8100D0F8C0029D
:104EC00000900298D0F8D41200EB8100D0F8C00214
:104ED00020B9FFE703208DF80F0019E002989DF834
:104EE000071001F0CBFA0099C1F80C020298D0F833
:104EF000D41200EB8100D0F8C402C2680099D1F846
:104F0000040201F50371904700208DF80F00FFE7C0
:104F10009DF80F0004B080BD80B586B005908DF877
:104F20001310059840F20101C2F2000100910978C6
:104F300001F0BCF800990598097801F00F0101EB28
:104F4000810100EB8101002003908884059840F2E4
:104F50000201C2F200010191097801F0A7F8019A5B
:104F600003980599127802F00F0202EB820201EB1E
:104F70008201A1F86401059840F20001C2F200012B
:104F80000291097801F092F8029A03980599137832
:104F900003F00F0303EB830301EB8301888405997E
:104FA000127802F00F0202EB820201EB8201C88448
:104FB0000598D0F8D41200EB8100D0F8C002F0B10F
:104FC000FFE70598D0F8D41200EB8100D0F8C402B6
:104FD000406880470598D0F8D41200EB8100D0F8E3
:104FE000C00202F057F90598D0F8D41200EB810105
:104FF0000020C1F8C0020599C1F8BC02FFE70020FB
:1050000006B080BD80B584B002900298D0F8D4126A
:1050100000EB8100D0F8C0020190019820B9FFE7B1
:1050200003208DF80F0025E00298D0F8D41200EB91
:105030008100D0F8C402C8B1FFE7019890F80002DF
:10504000FF2813D0FFE70298D0F8D41200EB8100BC
:10505000D0F8C4028368019991F8000291F8012206
:1050600098470199FF2081F80002FFE700208DF8A2
:105070000F00FFE79DF80F0004B080BD81B00090E5
:1050800000990A20088040F2A000C2F2000001B09E
:105090007047000080B586B0059040F25C00C2F217
:1050A00000000190822100F09BFE014601980491CE
:1050B000012100F095FE014601980391812100F045
:1050C0008FFE0290049820B1FFE7049910208871A8
:1050D000FFE7039820B1FFE7039940208880FFE7AE
:1050E000029820B1FFE7029940208880FFE70599E8
:1050F0004320088040F25C00C2F2000006B080BD90
:1051000080B586B0059040F25C00C2F200000190CC
:10511000822100F065FE014601980491012100F012
:105120005FFE014601980391812100F059FE029033
:10513000049820B1FFE7049910208871FFE70398D5
:1051400028B1FFE703994FF400708880FFE70298C9
:1051500028B1FFE702994FF400708880FFE70599B6
:105160004320088040F25C00C2F2000006B080BD1F
:1051700080B586B0059040F25C00C2F2000001905C
:10518000822100F02DFE014601980491012100F0DA
:1051900027FE014601980391812100F021FE029033
:1051A000049820B1FFE7049910208871FFE7039865
:1051B00020B1FFE7039940208880FFE7029820B1E3
:1051C000FFE7029940208880FFE705994320088087
:1051D00040F25C00C2F2000006B080BD80B590B025
:1051E0000E908DF837104FF4077002F057F80C90BE
:1051F0000C9860B9FFE70E98D0F8D41200EB81014B
:105200000020C1F8C00202208DF83F00F0E00C98A9
:105210004FF40771FBF733F90C980E99D1F8D422AB
:1052200001EB8201C1F8C0020E99D1F8D40201EB62
:105230008000D0F8C002C1F8BC020E98007C0028A3
:1052400040D1FFE70E9840F20101C2F20001079140
:105250000978022208924FF40073099301F0FAF9D9
:105260000799089A099B0E98097801F00F0101EB44
:10527000810100EB810101200B9088840E9840F29F
:105280000201C2F200010A91097801F0E3F90A9AD9
:105290000B980E99127802F00F0202EB820201EBDA
:1052A0008201A1F864010E9840F20001C2F20001EF
:1052B000097801F00F0101EB810100EB8101102061
:1052C000C8843EE00E9840F20101C2F20001029152
:1052D0000978022203924023049301F0BBF902995A
:1052E000039A049B0E98097801F00F0101EB8101EC
:1052F00000EB81010120069088840E9840F20201A3
:10530000C2F200010591097801F0A4F9059A069806
:105310000E99127802F00F0202EB820201EB820179
:10532000A1F864010E9840F20001C2F20001097870
:1053300001F00F0101EB810100EB81011020C88415
:10534000FFE70E9840F20001C2F2000100910978D7
:105350000322082301F07EF900990E98097801F0E4
:105360000F0101EB810100EB8101012088840C9980
:1053700000200190C1F804020E98D0F8D41200EB7E
:105380008100D0F8C4020068804701980C99C1F8E8
:1053900014020C99C1F818020C98D0F8040220B934
:1053A000FFE702208DF83F0022E00E98007C70B9E4
:1053B000FFE70E9840F20201C2F2000109780C9A50
:1053C000D2F804224FF4007301F06AF90CE00E9851
:1053D00040F20201C2F2000109780C9AD2F80422CC
:1053E000402301F05DF9FFE700208DF83F00FFE763
:1053F0009DF83F0010B080BD80B584B00290029847
:10540000D0F8D41200EB8100D0F8C00201900298CD
:10541000D0F8D41200EB8100D0F8C00220B9FFE729
:1054200003208DF80F0022E00298007C70B9FFE79E
:10543000029840F20201C2F200010978019AD2F802
:1054400004224FF4007301F02BF90CE0029840F2B3
:105450000201C2F200010978019AD2F80422402325
:1054600001F01EF9FFE700208DF80F00FFE79DF81F
:105470000F0004B080BD000083B00190009100983F
:1054800020B9FFE703208DF80B000BE0009801998D
:10549000D1F8D42201EB8201C1F8C40200208DF8BA
:1054A0000B00FFE79DF80B0003B0704784B002903B
:1054B00001910298D0F8D41200EB8100D0F8C0021C
:1054C0000090009820B9FFE703208DF80F0007E057
:1054D00001980099C1F8040200208DF80F00FFE741
:1054E0009DF80F0004B0704785B0039002910192BF
:1054F0000398D0F8D41200EB8100D0F8C0020090DD
:10550000009820B9FFE703208DF813000BE0029804
:105510000099C1F8080201980099C1F81002002012
:105520008DF81300FFE79DF8130005B070470000E9
:1055300080B58AB0089007910898D0F8D41200EB93
:105540008100D0F8C002069000208DF81500ADF85B
:1055500012008DF81100069820B9FFE703208DF89E
:105560002700C7E00798007800F06000014603912B
:1055700000285ED0FFE70398202840F0AE80FFE7C8
:105580000798C088002846D0FFE7079800780006F3
:10559000002823D5FFE70898D0F8D41200EB81004B
:1055A000D0F8C4028368079A50780699D288984741
:1055B0000798C088082803D3FFE70720029003E07C
:1055C0000798C0880290FFE70298ADF81600089887
:1055D0000699BDF8162000F081F91BE00798407885
:1055E000069981F800020798C0883F2804D8FFE791
:1055F0000798C088019002E040200190FFE70198E1
:10560000069981F801020898069991F8012200F0A4
:1056100037F9FFE70CE00898D0F8D41200EB8100CE
:10562000D0F8C40283680799487800229847FFE7BA
:105630005BE007984078014600910B2844D8009918
:10564000DFE801F0064142424242424242421C32FD
:10565000089890F89C02032807D1FFE708980DF1FD
:105660001201022200F03AF907E00898079900F0C9
:10567000F9F803208DF81100FFE72DE0089890F865
:105680009C02032807D1FFE708980DF115010122BC
:1056900000F024F907E00898079900F0E3F80320E8
:1056A0008DF81100FFE717E0089890F89C02032896
:1056B00008D0FFE70898079900F0D4F803208DF888
:1056C0001100FFE708E007E00898079900F0CAF822
:1056D00003208DF81100FFE707E00898079900F014
:1056E000C1F803208DF81100FFE79DF811008DF837
:1056F0002700FFE79DF827000AB080BD80B584B081
:1057000002900298D0F8D41200EB8100D0F8C002C9
:10571000019001208DF803000298D0F8D41200EB1C
:105720008100D0F8C00220B9FFE703208DF80F00F8
:105730002AE00198D0F8140208BBFFE70199012084
:10574000C1F814020198D0F81002029A40F2010147
:10575000C2F200010B7803F00F0303EB830302EBAB
:105760008302906102980978019BD3F80822D3F84C
:10577000103201F0F3F800208DF80300FFE79DF8E8
:1057800003008DF80F00FFE79DF80F0004B080BD07
:1057900080B582B001908DF8031000208DF80200D2
:1057A0000198D0F8B8124A689DF80310904720B1CC
:1057B000FFE703208DF80200FFE79DF8020002B02A
:1057C00080BD000080B582B001900091019890F8F2
:1057D0009C02013802280ED8FFE700984088012873
:1057E00008D1FFE701990020C1F8A402019800F058
:1057F0008FF8FFE704E00198009900F033F8FFE725
:1058000002B080BD82B001908DF80310002002B07C
:105810007047000082B001908DF80310002002B0A4
:105820007047000080B584B0039002910192039804
:10583000029A019B0021009100F032FF009804B011
:1058400080BD000080B584B003900291019203985E
:10585000029A019B0021009101F080F8009804B0A9
:1058600080BD000080B582B0019000910198802138
:1058700001F02CF80198002101F028F802B080BD59
:1058800080B584B003900291019203990320C1F87E
:10589000940201980399C1F8580101980399C1F83D
:1058A0005C010398029A019B0021009100F0F8FE30
:1058B000009804B080BD000080B582B001900199CD
:1058C0000520C1F8940201980023009319461A4656
:1058D00000F0E6FE009802B080BD000080B584B004
:1058E00003900291019203990220C1F89402019859
:1058F0000399886101980399C8610398029A019BF2
:105900000021009101F02AF8009804B080BD000049
:1059100080B582B0019001990420C1F894020198E9
:105920000023009319461A4601F018F8009802B0B7
:1059300080BD000080B582B08DF8070000919DF811
:10594000070060B9FFE7009A49F25930C0F600003D
:1059500040F25C11C2F2000100F0DEFA0BE0009AA6
:1059600049F25930C0F6000040F25C11C2F2000169
:1059700000F0D2FAFFE740F25C10C2F2000002B081
:1059800080BD000082B08DF80700009100991220C0
:10599000088040F2AC00C2F2000002B07047000084
:1059A00080B582B08DF8070000919DF8070060B9BE
:1059B000FFE7009A49F24B30C0F6000040F25C115C
:1059C000C2F2000100F0A8FA0BE0009A49F24B3055
:1059D000C0F6000040F25C11C2F2000100F09CFA37
:1059E000FFE740F25C10C2F2000002B080BD000090
:1059F00082B08DF80700009100990420088040F2E1
:105A0000D400C2F2000002B07047000080B584B03C
:105A10008DF80F000291029A49F26430C0F600003E
:105A200040F25C11C2F20001019100F075FA019898
:105A300004B080BD80B582B08DF8070000919DF85C
:105A4000070060B9FFE7009A49F27730C0F600001E
:105A500040F25C11C2F2000100F05EFA0BE0009A25
:105A600049F27730C0F6000040F25C11C2F200014A
:105A700000F052FAFFE740F25C10C2F2000002B000
:105A800080BD000080B582B08DF8070000910099BC
:105A90001A200880FBF726FE40F2D800C2F2000070
:105AA00002B080BD80B584B0039002910298C08896
:105AB000012805D0FFE703980299FFF7D3FE21E004
:105AC000039890F89C12481E0191022804D3FFE726
:105AD000019803280AD00FE00399002088600398FA
